:020000040800F2
:10000000B00500209D010008790B0008350B0008A1
:10001000370B000885070008D52000080000000005
:100020000000000000000000000000001D1100089A
:100030008707000800000000950D0008C5120008A1
:10004000B7010008B7010008B7010008B7010008B0
:10005000B7010008B7010008B7010008B7010008A0
:10006000B7010008B7010008B7010008B701000890
:10007000B7010008B7010008B7010008B701000880
:10008000B7010008B7010008B7010008B701000870
:10009000B7010008B7010008B7010008B701000860
:1000A000B7010008B7010008B7010008B701000850
:1000B000B7010008B5160008B7010008B70100082D
:1000C000B7010008B7010008B7010008B701000830
:1000D000B7010008B7010008B7010008B701000820
:1000E000B7010008B7010008B7010008B701000810
:1000F000B7010008B7010008B7010008B701000800
:10010000B7010008B7010008B7010008B7010008EF
:10011000B7010008B7010008B7010008B7010008DF
:10012000B7010008B7010008B7010008B7010008CF
:10013000B7010008B7010008B7010008B7010008BF
:10014000B7010008B7010008B7010008B7010008AF
:10015000B7010008B7010008B7010008B70100089F
:10016000B7010008B7010008B7010008B70100088F
:10017000B7010008B7010008B7010008B70100087F
:10018000B7010008B7010008DFF80CD000F088FACA
:100190000048004709210008B005002006488047B4
:1001A00006480047FEE7FEE7FEE7FEE7FEE7FEE75C
:1001B000FEE7FEE7FEE7FEE70913000889010008F5
:1001C0002DE9FE4F804681EA0300C00F0C460090E7
:1001D00021F0004123F00045B8EB0200A94105D20F
:1001E0004046214690461C460B46024623F00040FE
:1001F000104347D0270DC7F30A00C3F30A510290FA
:10020000401A019040286BDAC3F3130040F4801BBE
:100210000098924620B10023D2EB030A63EB0B0B4C
:1002200001985946C0F14002504600F0ABF906462D
:100230000D4650465946019A00F0C3F910EB0800EC
:100240006141002487EA115284EAE7731A4340D0DF
:10025000009A62B3019A012A4FEA075215DC001B8B
:1002600061EB02014FF0004202EA0752CDE9004281
:10027000001C41F5801132462B4600F0C3F903B053
:10028000BDE8F08F40462146F9E7001B61EB020113
:10029000001C41F5801300185B412018A2F50017DF
:1002A00047EB030140EAD570B6196D4111E06D08C6
:1002B0004FEA360645EAC0754FEA0752001B61EB6C
:1002C0000201001C41F5801149084FEA3000001975
:1002D000514132462B4603B0BDE8F04F00F083B9E0
:1002E0000098012240000023D0EB020263EBE07390
:1002F000009821464FEAE074B8EB000061EB04017E
:10030000E9E783F000435BE781F0004158E72DE91E
:10031000FE4F81EA030404F0004421F00041009400
:100320004FF0000B23F0004350EA01045ED052EA84
:1003300003045BD0C3F30A54C1F30A552C44A4F25E
:10034000F3340194A0FB0254C1F3130141F4801172
:10035000C3F3130343F4801301FB024400FB034E79
:10036000840A970A44EA815447EA8357A4FB076842
:1003700002958D0A05FB07854FEA932C04FB0C546C
:100380002705029D4FEA065847EA1637B5EB0805E0
:100390006EEB070C870E920E47EA811742EA831232
:1003A000A7FB0201B6EB0B0164EB00042B0D43EA43
:1003B0000C335E1844EB1C50DA465146E7FB020151
:1003C000C5F313044FEA0B3343EA14534FEA0432E4
:1003D000019C43EA0603A4F10C040294009CCDE9BD
:1003E00000B400F00FF903B0BDE8F08F0020014623
:1003F000F9E72DE9F04D81EA030404F0004B21F008
:10040000004514464FF0000A23F0004150EA05026F
:1004100020D054EA01021DD0C5F30A570246C5F3A5
:100420001303C1F31300C1F30A5640F4801543F4DB
:100430008013A7EB0608101BD64608F2FD3873EBB5
:10044000050002D308F1010801E092185B41B8F100
:10045000000F03DA00200146BDE8F08D00204FF4C4
:100460008011064684460EE0171B73EB050705D383
:10047000121B63EB050306434CEA010C49084FEAE3
:10048000300092185B4150EA0107EDD152EA0300B7
:1004900012D082EA040083EA0501084305D0101B4C
:1004A000AB4106D20122002306E000224FF00043B8
:1004B00002E06FF0010253101AEB06004CEB0851FA
:1004C00010EB0A0041EB0B01BDE8F04D00F08BB8DA
:1004D0000EB5C10F80EAE0700844CA07002140F25F
:1004E00033438DE80E000A460B4600F08BF803B04C
:1004F00000BDC1F30A5210B5C1F3130140F2FF333E
:1005000041F480119A4201DA002010BD40F23343D9
:100510009A42A2F2334203DC524200F042F810BD8C
:10052000904010BD30B5041E71F1000404DB4FF0A3
:100530000044404264EB0101141E73F1000405DB2A
:100540001C464FF00043524263EB04038B4208BF4A
:10055000824230BD30B5041E71F1000404DB4FF05F
:100560000044404264EB0101141E73F1000405DBFA
:100570001C464FF00043524263EB0403994208BF0C
:10058000904230BD202A04DB203A00FA02F100201C
:1005900070479140C2F1200320FA03F319439040C1
:1005A0007047202A04DB203A21FA02F0002170472C
:1005B00021FA02F3D040C2F12002914008431946CB
:1005C0007047202A06DBCB17203A41FA02F043EAB3
:1005D000E07306E041FA02F3D040C2F120029140FC
:1005E00008431946704710B5141E73F1000408DA69
:1005F000401C41F1000192185B411A4301D120F0E7
:10060000010010BD2DE9F04D92469B4611B1B1FAA3
:1006100081F202E0B0FA80F220329046FFF7B2FF9A
:1006200004460F4640EA0A0041EA0B0153465A4687
:10063000084313D0114653EA010019D0C8F1400213
:100640005046FFF7AEFF05460E4650465946424615
:10065000FFF798FF084305D0012004E02046394603
:10066000BDE8F08D0020054346EAE0762C43374391
:100670000A986305E40AA0EB08000022FD0A44EA98
:1006800047540A3002D500200146E9E70105101958
:100690006941DDE9084500196941BDE8F04DA2E76F
:1006A000064C074D06E0E06840F0010394E80700BF
:1006B00098471034AC42F6D3FFF76AFD20210008BA
:1006C0004021000870B58C1810F8015B15F0070385
:1006D00001D110F8013B2A1106D110F8012B03E0DB
:1006E00010F8016B01F8016B5B1EF9D12B0705D4E3
:1006F0000023521E0DD401F8013BFAE710F8013B2C
:10070000CB1A921C03E013F8015B01F8015B521E47
:10071000F9D5A142D8D3002070BD00001CB501213D
:10072000084600F049FC01208DF8040000218DF8F6
:100730000610C10300918DF8070003208DF8050015
:100740006946024800F0A4F91CBD00000000024008
:100750001CB50121402000F02FFC01208DF8040081
:1007600000218DF80610C10200918DF807000320CA
:100770008DF805006946024800F08AF91CBD0000AA
:1007800000180240FEE7704730B589B00121032010
:1007900000F012FC0121084600F02AFC2E4D2846EC
:1007A00000F0CCF802218DF82010202207928DF85D
:1007B000211000248DF8234007A9284600F068F98D
:1007C00001220521284600F0A1F9244D0122032130
:1007D000284600F09BF90821079107A9284600F058
:1007E00057F92D05284601F05BF9ADF810404FF69A
:1007F000FF700590ADF81240ADF8184004A92846E6
:1008000001F06AFB00231A460321284601F01EFA74
:1008100001A801F071FAADF804400724ADF80C40CE
:1008200001A9284601F037FA0420ADF80400ADF81C
:100830000C4001A9284601F02EFA0121284601F0BA
:100840000EF90021284601F01DFB0121284601F088
:100850000CF909B030BD0000000002400004024065
:1008600030B589B00121082000F0A6FB0121042049
:1008700000F0BEFB2F4D284600F060F802218DF8F5
:100880002010C902079100248DF8234007A92846AB
:1008900000F0FEF802220C21284600F037F902226F
:1008A0000D21284600F032F94FF40051079107A9B5
:1008B000284600F0EDF8204D284601F0F1F8ADF89B
:1008C00010404FF6FF700590ADF81240ADF818409B
:1008D00004A9284601F000FB00231A4603212846FC
:1008E00001F0B4F901A801F007FAADF804400724BB
:1008F000ADF80C4001A9284601F0CDF90420ADF86F
:100900000400ADF80C4001A9284601F0C4F901210A
:10091000284601F0A4F801221146284601F0F4F916
:100920000021284601F0AEFA0121284601F09DF889
:1009300009B030BD000C02400008004010B5494924
:10094000884209D10121084600F044FB0021BDE89E
:100950001040012000F03EBB4349884209D10121EB
:10096000022000F037FB0021BDE81040022000F01B
:1009700031BB3E49884209D10121042000F02AFB05
:100980000021BDE81040042000F024BB3849884213
:1009900009D10121082000F01DFB0021BDE8104015
:1009A000082000F017BB3349884209D101211020EB
:1009B00000F010FB0021BDE81040102000F00ABB41
:1009C0002D49884209D10121202000F003FB00219C
:1009D000BDE81040202000F0FDBA2849884209D126
:1009E0000121402000F0F6FA0021BDE8104040202F
:1009F00000F0F0BA2249884209D10121802000F09C
:100A0000E9FA0021BDE81040802000F0E3BA1D495A
:100A100088420AD184150121204600F0DBFA2046E5
:100A2000BDE81040002100F0D5BA174988420AD12C
:100A300044150121204600F0CDFA2046BDE81040C3
:100A4000002100F0C7BA114988420AD104150121DA
:100A5000204600F0BFFA2046BDE81040002100F01B
:100A6000B9BA10BD00000240000402400008024074
:100A7000000C024000100240001402400018024026
:100A8000001C0240002002400024024000280240D6
:100A90002DE9F041002201274FF0030C07FA02F57F
:100AA0000B682B40AB422CD1066853000CFA03F4C0
:100AB000A64306600E79D0F800809E4046EA0806FC
:100AC00006600E79012E01D0022E12D18668A6434F
:100AD00086604E79D0F808809E4046EA0806866017
:100AE0004668AE43466045688E799640B6B2354357
:100AF0004560C568A543C560CC799C40C3681C436C
:100B0000C460521C102AC9D3BDE8F08110B54B0750
:100B1000DB0E9A40C90800EB8100016A0F249C405B
:100B2000A1430162016A1143016210BD4183704714
:100B300001837047FEE7FEE710B5FFF725FEFFF7DC
:100B40008FFE01F07BFA00F0BFFB00F0DBF84FF402
:100B500000410748FFF7ECFF00F00CF94FF400618B
:100B60000448FFF7E5FFBDE8104000F09BBD000022
:100B700000000240001802407047000030B50F230B
:100B8000C27801250178002A1FD0154A126802F4A4
:100B9000E062C2F5E062C2F30722C2F10404D3406E
:100BA0004278A24084781C401443220101F1E021E4
:100BB00081F80024007800F01F018D40400980007A
:100BC00000F1E020C0F8005130BD01F01F00854069
:100BD0004809800000F1E020C0F8805130BD0000DD
:100BE0000CED00E00249084302490860704700002C
:100BF0000000FA050CED00E070B52DED028B9FEDC5
:100C0000278B284D284C84ED020B9FED280B53ECCD
:100C1000102B94ED020B51EC100BFFF79BFC1BD833
:100C200094ED000B51EC180B53EC102BFFF7E1FB8C
:100C300094ED021B53EC112BFFF769FBFFF759FCF6
:100C40000146284601F01AF9BDEC028B2846BDE8A2
:100C50007040002101F014B90021284601F00EF97E
:100C600094ED000B51EC180B53EC102BFFF7C1FB6C
:100C700094ED020B41EC180B51EC100B81F000418C
:100C800053EC182BFFF743FBFFF733FC0146BDEC99
:100C9000028B2846BDE8704001F0F2B8333333339D
:100CA000332B7D40000001402800002000000000A0
:100CB0000000000010B50D4880ED000B90ED000B1A
:100CC00053EC102B9FED0A0B51EC100BFFF791FB2F
:100CD0009FED091B53EC112BFFF713FBFFF709FCEA
:100CE0000146BDE81040064801F0C6B828000020C3
:100CF000000000000082F440000000000000F03F0F
:100D00000000014010B5FFF709FD00F091FB00F075
:100D1000DDFBBDE810404FF400410148FFF706BF7E
:100D20000000024010B50D4880ED040B90ED040B5F
:100D300053EC102B9FED0A0B51EC100BFFF759FBF6
:100D40009FED091B53EC112BFFF7DBFAFFF7D1FBEB
:100D50000146BDE81040064801F08EB8280000208A
:100D6000000000000082F440000000000000F03F9E
:100D70000004014010B5FFF7EBFC00F021FD00F08E
:100D800071FDBDE810404FF400610148FFF7CEBE91
:100D9000001802407047000070B504462DED088B26
:100DA000B0EE408AF0EE608A9FED70AB9FED719BD4
:100DB00053EC1A2B51EC180BFFF7CCFB03D2B0EE1F
:100DC0004A8AF0EE6A8A53EC192B51EC180BFFF7A4
:100DD000A9FB03D2B0EE498AF0EE698A47F230519E
:100DE0009FED66AB9FED67BB684DE06CA5F110060B
:100DF000884202DDA0F58030E064E06CFFF768FB1C
:100E00009FED631B53EC112BFFF781FA41EC100BA4
:100E100084ED0C0B94ED0C0B01F05DF9B0EE409AF3
:100E2000F0EE609AB0EE480AF0EE680A01F053F96D
:100E300053EC192B51EC100BFFF763FA41EC100B3C
:100E400001F049F984ED0E0B94ED0E0B9FED521B52
:100E500051EC100B53EC112BFFF77CFB58D294EDA7
:100E60000E0B53EC1B2B51EC100BFFF75BFB04D26A
:100E700094F8440008B984ED00AB94ED0E0B53ECEC
:100E80001B2B51EC100BFFF765FB03D994F84400C2
:100E9000012815D1B4F8400010B9012084F84400AD
:100EA000B4F9400014280BDAB4F84000401C00B23A
:100EB000A4F8400005EBC00090ED000B84ED000BA2
:100EC00094ED0E0B9FED361B51EC100B53EC112BD8
:100ED000FFF728FB19D894F84400012815D1B4F97C
:100EE000420000280BDDB4F84200401E00B2A4F816
:100EF000420005EBC00090ED000B84ED000BB4F850
:100F00004200002801D184F84400BDEC088B70BD7C
:100F100094ED0E0B9FED241B51EC100B53EC112B99
:100F2000FFF718FB02D284ED00ABEEE796ED000B65
:100F300051EC180B53EC102BFFF7F4FA04D14FF4DB
:100F400000411B48FFF7F2FD96ED020B51EC180B28
:100F500053EC102BFFF7E6FAD7D1BDEC088B4FF41A
:100F60000061BDE870401348FFF7E0BD00000000DD
:100F70000080564000000000008056C000000000C5
:100F80000000104000000000000024405800002035
:100F90000AD7A3703D0AB73F0000000000000040E0
:100FA0000000000000002040333333333333C33FAD
:100FB0000000024000180240054A002903D01168D1
:100FC0000143116070471168814311607047000050
:100FD00030380240054A002903D0116801431160EE
:100FE000704711688143116070470000103802405B
:100FF000054A002903D01168014311607047116848
:10100000814311607047000040380240054A0029C2
:1010100003D011680143116070471168814311606A
:101020007047000020380240054A002903D01168AB
:1010300001431160704711688143116070470000DF
:1010400044380240054A002903D011680143116069
:1010500070471168814311607047000024380240D6
:1010600070B5244B196801F00C01234C00291ED0E7
:10107000224E04291DD008291DD00460196801F0F2
:10108000F00109091E4A545C0168E14041601C6896
:1010900004F4E054A40A145D21FA04F484601B688B
:1010A00003F460435B0BD25CD140C16070BD04604F
:1010B000E4E70660E2E70F4A121F1168C1F38055AA
:1010C000116801F03F0135B1B6FBF1F11468C4F3CA
:1010D0008814614305E0B4FBF1F11468C4F388148B
:1010E00061431268C2F30142521C5200B1FBF2F19B
:1010F0000160C3E7083802400024F40040787D0115
:10110000140000204FF08040406A80B27047000019
:101110000148006880B27047240800407047000012
:101120000CB50022019200922749086840F48030F3
:1011300008604FF4A043086800F400300090019864
:10114000401C0190009810B901989842F3D10868AA
:10115000800302D50120009000E000920098012851
:1011600031D119484030026842F08052026017487D
:10117000026842F44042026013480830026802608C
:10118000026842F400420260026842F4A052026027
:10119000021F0F4B13600A6842F080720A600A68EF
:1011A0009201FCD50B4A40F205711160016821F0F3
:1011B00003010160016841F0020101600168C1F3AF
:1011C00081010229FAD10CBD0038024000700040B4
:1011D00019544007003C024010B504462DED068B23
:1011E0009FED309B9FED31AB94ED000B94ED021B16
:1011F00053EC102B51EC110BFFF783F841EC100B63
:1012000084ED060B94ED060B9FED2A1B51EC100BA1
:1012100053EC112BFFF77BF894ED040B94ED061BB8
:1012200041EC180B53EC102B51EC110BFFF769F844
:101230009FED221B53EC112BFFF769F853EC182B91
:10124000FEF7BEFF41EC100B84ED080B94ED060B8E
:1012500084ED040B94ED080B94ED0A1B53EC102B5A
:1012600051EC110BFEF7ACFF41EC100B84ED0A0BB7
:1012700094ED0A0B53EC192B51EC100BFFF76AF9A4
:1012800001D884ED0A9B94ED0A0B53EC1A2B51EC18
:10129000100BFFF747F901D884ED0AABBDEC068BC4
:1012A00010BD0000000000000000494000000000E8
:1012B00000004540B81E85EB51B89E3FFA7E6ABCDF
:1012C0007493683F00F046BE0C480D490068B0FBBF
:1012D000F1F0401EB0F1807F01D301200AE04FF011
:1012E000E0214861074AF020107000208861072043
:1012F00008610020002800D0FEE7704700000020B1
:10130000A086010023ED00E010B51248016841F409
:10131000700101601048016841F0010101600E4A4E
:1013200000210832116002680C4B1A400260031D54
:101330000B4A1A60026822F48022026006480C30D0
:101340000160FFF7EDFE03494FF00060803908604F
:1013500010BD000088ED00E000380240FFFFF6FEFF
:101360001030002470B5048C24F001040484058B33
:10137000048C25F0F3054FF6FF7606EA03131343BA
:101380002B4324F00A020A4342F001010383018443
:1013900070BD70B5048C24F010040484058B068C99
:1013A0004FF6FF7404EA011125F4734504EA033390
:1013B0002B4304EA02221A4326F0A0030B4343F016
:1013C00010010283018470BDF0B5048C24F4807494
:1013D0000484868B058C4FF6FF7707EA012426F0FC
:1013E000F30607EA03111143314325F42062224337
:1013F00042F4807281830284F0BD70B5048C24F4C1
:1014000080540484858B068C4FF6FF7404EA013106
:1014100025F4734504EA02222A4304EA0333134302
:1014200026F420420A4342F480518383018470BD34
:101430007CB501211220FFF7BFFD224C01220921BA
:101440002046FFF763FB012208212046FFF75EFBE1
:1014500001220B212046FFF759FB01220A212046D9
:10146000FFF754FB184D01220C212846FFF74EFBD5
:101470006115009102218DF8041000218DF80610ED
:101480008DF8071003218DF8051069462046FFF7F7
:10149000FFFAA115009169462046FFF7F9FAE0141A
:1014A000009069462046FFF7F3FA20150090694640
:1014B0002046FFF7EDFAA014009069462846FFF792
:1014C000E7FA7CBD0010024000040240F0B52DEDAB
:1014D000068B8DB09FED678B684D694E01210846E4
:1014E000FFF7A2FD95ED000B53EC102B9FED65ABC4
:1014F00051EC1A0BFEF77DFF9FED649B53EC192B0B
:10150000FEF7FFFEFEF7F5FF0B900024ADF8284034
:101510007015ADF83000ADF82A408DF832400AA9B8
:10152000304600F0D9FC3020ADF814000120ADF8B1
:1015300016000420ADF8180095ED000B53EC102BAD
:101540009FED540B51EC100BFEF753FFFEF7D1FF4C
:101550000790ADF82040ADF82240B715ADF82470E3
:10156000ADF8264005A9304600F0FEFB08213046C4
:1015700000F02EFC05A9304600F030FC0821304672
:1015800000F070FCF014ADF804004010ADF8060057
:10159000ADF80870BD20ADF80A00B014ADF80C002D
:1015A000ADF80E408000ADF8100001A9304600F003
:1015B00045FA0121304600F058FA0121304600F08A
:1015C00060FA95ED000B51EC1A0B53EC102BFEF763
:1015D00010FF53EC192BFEF794FEFEF78AFF01462D
:1015E000304600F049FC9FED2D0B53EC102B95ED90
:1015F000020B51EC100BFEF7ADFF1BD895ED000B65
:1016000051EC180B53EC102BFEF7F3FE95ED021B7B
:1016100053EC112BFEF77BFEFEF76BFF01463046C5
:1016200000F02CFC0021304600F02AFC0DB0BDEC8F
:10163000068BF0BD0021304600F020FC95ED000B3C
:1016400051EC180B53EC102BFEF7D3FE95ED020B6B
:1016500041EC180B51EC100B81F0004153EC182BAE
:10166000FEF755FEFEF745FF0146304600F008FC48
:10167000DCE7000033333333332B7D402800002078
:1016800000000140000000000082F4400000000063
:101690000000F03F000000000082E4400000000075
:1016A0000000000010B500F077F8BDE8104000F031
:1016B00035BB00002DE9F041354D0121284600F0F1
:1016C000DEFA00285DD0FFF71DFD324C0746E064CE
:1016D000A16C401A2065002802DA00F580302065F0
:1016E000206D47F23056B04202DDC0F580302065F3
:1016F000206D00EB4000FEF7EBFE41EC100B84ED9B
:10170000020BA764FFF704FD224F80465837F864A8
:10171000B96C401A3865002802DA00F58030386567
:10172000386DB04202DDC0F580303865386D00EBB1
:101730004000FEF7CDFE41EC100B87ED020BC7F821
:101740004880206D30B11348FFF746FD94ED0A0B39
:10175000FFF7B0FA386D38B10E485830FFF73CFD4E
:1017600097ED0A0BFFF7DEFA0A4C0A48B83C94EDF5
:10177000000BFFF711FB94ED020B04F58870FFF7E7
:101780000BFB2846BDE8F041012100F06BB90000D9
:10179000000400400001002008B54FF44070FFF73E
:1017A00021FA1D208DF8000001208DF80100002194
:1017B0008DF802108DF803006846FFF7DFF908BDC9
:1017C0002DE9FC4101210720FFF7F6FB224E032201
:1017D00006213046FFF79AF9204F032207213846A9
:1017E000FFF794F9032207213046FFF78FF9DFF85E
:1017F000708003220E214046FFF788F9032206215C
:101800003846FFF783F94024009402208DF8040045
:1018100000218DF806108DF8071003208DF80500C3
:1018200069463046FFF734F9802500956946384609
:10183000FFF72EF9009569463046FFF729F9200297
:10184000009069464046FFF723F900946946384600
:10185000FFF71EF9BDE8FC810008024000000240CD
:1018600000040240F0B52DED068B8DB09FED678B27
:10187000684D694E01210220FFF7D6FB95ED040B60
:1018800053EC102B9FED65AB51EC1A0BFEF7B1FD3D
:101890009FED649B53EC192BFEF733FDFEF729FEF9
:1018A0000B900024ADF828407015ADF83000ADF86D
:1018B0002A408DF832400AA9304600F00DFB302056
:1018C000ADF814000120ADF816000420ADF81800A2
:1018D00095ED040B53EC102B9FED540B51EC100BBA
:1018E000FEF787FDFEF705FE0790ADF82040ADF846
:1018F0002240B715ADF82470ADF8264005A9304652
:1019000000F032FA0821304600F062FA05A93046AC
:1019100000F064FA0821304600F0A4FAF014ADF8A3
:1019200004004010ADF80600ADF80870BD20ADF819
:101930000A00B014ADF80C00ADF80E408000ADF810
:10194000100001A9304600F079F80121304600F07E
:101950008CF80121304600F094F895ED040B51EC21
:101960001A0B53EC102BFEF744FD53EC192BFEF72A
:10197000C8FCFEF7BEFD0146304600F07DFA9FED43
:101980002D0B53EC102B95ED060B51EC100BFEF7C5
:10199000E1FD1BD895ED040B51EC180B53EC102B0B
:1019A000FEF727FD95ED061B53EC112BFEF7AFFC60
:1019B000FEF79FFD0146304600F060FA00213046F8
:1019C00000F05EFA0DB0BDEC068BF0BD0021304694
:1019D00000F054FA95ED040B51EC180B53EC102B5E
:1019E000FEF707FD95ED060B41EC180B51EC100BC3
:1019F00081F0004153EC182BFEF789FCFEF779FDCE
:101A00000146304600F03CFADCE700003333333364
:101A1000332B7D402800002000040140000000001E
:101A20000082F440000000000000F03F00000000D1
:101A30000082E440000000000000000010B50A88A9
:101A40004B88CC881A438B8823431A430B891A434B
:101A50004B8989891A430A43A0F8442010BDC94321
:101A600001827047C94301827047002904D0018870
:101A700041F0010101807047018821F001010180DE
:101A80007047002905D030F8441F41F4004101801F
:101A9000704730F8441FC1F30E0101807047000009
:101AA00010B55D49884209D101210846FFF7CAFAFD
:101AB0000021BDE810400120FFF7C4BAB0F1804F0B
:101AC0000CD05649884213D101210220FFF79EFA1B
:101AD0000021BDE810400220FFF798BA0121084616
:101AE000FFF794FA0021BDE810400120FFF78EBAFD
:101AF0004B49884209D101210420FFF787FA0021D0
:101B0000BDE810400420FFF781BA4649884209D158
:101B100001210820FFF77AFA0021BDE810400820D3
:101B2000FFF774BA4049884209D101211020FFF71C
:101B30006DFA0021BDE810401020FFF767BA3B495D
:101B4000884209D101212020FFF760FA0021BDE879
:101B500010402020FFF75ABA3549884209D10121A7
:101B60000220FFF76FFA0021BDE810400220FFF7C6
:101B700069BA304988420AD101210C042046FFF796
:101B800061FA2046BDE810400021FFF75BBA2A4900
:101B900088420AD101214C042046FFF753FA20461F
:101BA000BDE810400021FFF74DBA244988420AD110
:101BB00001218C042046FFF745FA2046BDE810407D
:101BC0000021FFF73FBA1E49884209D10121402078
:101BD000FFF71CFA0021BDE810404020FFF716BABD
:101BE0001849884209D101218020FFF70FFA00210E
:101BF000BDE810408020FFF709BA134988420AD196
:101C0000841501212046FFF701FA2046BDE8104067
:101C10000021FFF7FBB910BD0000014000040040A7
:101C200000080040000C004000100040001400407C
:101C300000040140004001400044014000480140D0
:101C400000180040001C00400020004070B50589CD
:101C5000048B068C25F007050D434FF6FC410C4024
:101C600040F201110C4326F022064FF6FF7101EA03
:101C700003111143314305810483018470BD024681
:101C80000020138A0B4092890A40002B02D0002AC0
:101C900000D00120704770B506460C462588618843
:101CA000A2882389002D0CD0042D13D0082D1AD022
:101CB0003046FFF7A2FBE1883046BDE8704000F0F7
:101CC000FFB83046FFF74EFBE1883046BDE8704074
:101CD00000F0DAB83046FFF75CFBE1883046BDE83B
:101CE000704000F0D9B83046FFF76EFBE18830460F
:101CF000BDE8704000F0DCB8002101804180012285
:101D00008280C18001817047002A03D082890A4302
:101D10008281704782898A43828170473EB5012162
:101D20000220FFF765F93120019042F2CF00ADF8B3
:101D300000000020ADF80800ADF80200094C69462B
:101D4000204600F0C9F801212046FFF788FE012255
:101D500011462046FFF7D8FF01212046FFF785FEF8
:101D60003EBD00000004004030B5028C22F00102AC
:101D70000284058C8388028B22F0700222F0030219
:101D80000C88144325F002028D8915434A882A43A2
:101D90000D4DA84202D00D4DA8420FD122F00805EA
:101DA000CA892A4322F004058A882A4323F48073CF
:101DB00023F400730D8A1D434B8A2B4383800483D5
:101DC00089684163028430BD000001400004014085
:101DD000028B22F008020A430283704770B5028C1E
:101DE00022F010020284028C8388048B24F4E044E5
:101DF00024F440760D884FF6FF7404EA0525354338
:101E000022F020028E8904EA061616434A8804EA64
:101E100002123243114EB04202D0114EB04217D1DD
:101E200022F08002CE8904EA0616164326F0400608
:101E30008A8804EA0212324323F4806323F40063A5
:101E40000E8A04EA86061E434B8A04EA8303334360
:101E50008380058389688163028470BD000001402E
:101E600000040140028B22F400624FF6FF7303EA84
:101E70000121114301837047C1627047416370477C
:101E80008163704741627047028B22F00C0202832B
:101E9000028B0A4302837047028B22F44062028362
:101EA000028B4FF6FF7303EA01210A430283704756
:101EB000828B22F00C028283828B0A4382837047DA
:101EC000828B22F440628283828B4FF6FF7303EA97
:101ED00001210A438283704730B50288164C174DA2
:101EE000A0420DD0A8420BD0B0F1804F08D0144BC7
:101EF000984205D0134B984202D0134B984203D11D
:101F000022F070034A881A43104B984206D0104BB7
:101F1000984203D022F440730A891A4302804A6827
:101F2000C2620A880285A04201D0A84201D1897A02
:101F300001860121818230BD000001400004014082
:101F40000004004000080040000C00400010004069
:101F50000014004003480168002902D00168491EAE
:101F60000160704724000020002904D0818941F4D9
:101F7000005181817047818921F40051818170472E
:101F80007FB504460D46208A20F44051E888084376
:101F90002082A08941F20C618843A9882A891143D3
:101FA0006A8902431143A181A08A20F44071A88963
:101FB0000843A0826846FFF753F81E48844202D0C7
:101FC0001D48844201D1039800E00298A1890904C8
:101FD00008D500EBC00101EB001029684900B0FBF7
:101FE000F1F007E000EBC00101EB00102968890067
:101FF000B0FBF1F06422B0FBF2F109010B096FF0C4
:1020000018056B4300EB8300A3891D044FF03203D6
:1020100007D503EBC000B0FBF2F000F00700084367
:1020200006E003EB0010B0FBF2F000F00F000843F5
:1020300020817FBD001001400014014070B586B0C2
:1020400001210846FEF7B8FF01211020FEF7ECFF42
:1020500000248DF8164001208DF8170002258DF818
:1020600015508DF8145040020490184E04A93046C3
:10207000FEF70EFD8DF814506902049104A9304654
:10208000FEF706FD07220A213046FEF73FFD072234
:1020900009213046FEF73AFD4FF4E1300090ADF8EB
:1020A0000440ADF80640ADF80840ADF80C400C20F7
:1020B000ADF80A00064C69462046FFF761FF012192
:1020C0002046FFF751FF06B070BD0000000002403F
:1020D00000100140FEE72DED020B019820F00040BA
:1020E00001909DED000B02B0704702E008C8121F7E
:1020F00008C1002AFAD170477047002001E001C1F1
:10210000121F002AFBD17047FEF716FD9FED020B50
:10211000FEF772FDFEE7000000000000008056C0E0
:102120004021000800000020B0010000C4060008A3
:1021300020220008B001002000040000FA2000085E
:1021400011847A030A680901020304060708090CCE
:10215000A9101BCDCC01540C47401E8056409A99C3
:10216000017BD9461061E314C0583A104012F75869
:10217000FAD02510406649809A5A961040C9C8592D
:10218000D8D34E114009F9A067B34A1240DD989E9A
:10219000B0C4831340A7B393C151F21440AF777F0B
:1021A000BC578D1620580A1840E5F21FD26F1F1A2F
:1021B00060584A1C401B0DE02D90E01D40F7065F63
:1021C000984CB51F402844C02154B920402D2636D4
:1021D0001FD786214092B3B0A71D3E22407B832F9C
:1021E0004CA6DA22409B1BD313965823404DDBBFED
:1021F000B2D2B423407784D38217ED23505A2408F7
:102200005A1008011A1BCDCC010B110C4728021BD8
:10221000130920581B9A99010B27D9465800000032
:040000050800018965
:00000001FF
